{
  "transactions": [
    {
      "hash": "0x821461ca2a4ef984c3c01197d7be2e7f5402578a5855a01b4ea3d71d7f644323",
      "transactionType": "CALL",
      "contractName": null,
      "contractAddress": "0xcc9b3887be1e52ff0e55d783e151de5a40602be1",
      "function": "delegate((bytes32,address))",
      "arguments": [
        "(0x06bc873ee2707d92a1e23b12e5de4a5c63f35b28bab72ea15d1052985371773a, 0xedfC15064A691c294b3fbb8c247FAF20642e7420)"
      ],
      "transaction": {
        "from": "0xa4bace916eab0435b024514c565a3a41f937550b",
        "to": "0xcc9b3887be1e52ff0e55d783e151de5a40602be1",
        "gas": "0x115c0",
        "value": "0x0",
        "input": "0xec90e42f06bc873ee2707d92a1e23b12e5de4a5c63f35b28bab72ea15d1052985371773a000000000000000000000000edfc15064a691c294b3fbb8c247faf20642e7420",
        "nonce": "0x5a7",
        "chainId": "0x138de"
      },
      "additionalContracts": [],
      "isFixedGasLimit": false
    }
  ],
  "receipts": [
    {
      "status": "0x1",
      "cumulativeGasUsed": "0x29cd06",
      "logs": [
        {
          "address": "0x816f722424b49cf1275cc86da9840fbd5a6167e9",
          "topics": [
            "0x1e236eed9d7e9ca81e25a438791ca7f69cf43cdcc537a0fd4f74f0697da0460b",
            "0x000000000000000000000000cc9b3887be1e52ff0e55d783e151de5a40602be1",
            "0x06bc873ee2707d92a1e23b12e5de4a5c63f35b28bab72ea15d1052985371773a",
            "0x000000000000000000000000edfc15064a691c294b3fbb8c247faf20642e7420"
          ],
          "data": "0x00000000000000000000000000000000000000000000000000000000000138de0000000000000000000000000000000000000000000000000000000000c2c97f",
          "blockHash": "0x5ec77e0788915e77324d3bff5bd0e3f5c98fdac128191641b82ba2133752d8e6",
          "blockNumber": "0xc2c97f",
          "blockTimestamp": "0x690e50bb",
          "transactionHash": "0x821461ca2a4ef984c3c01197d7be2e7f5402578a5855a01b4ea3d71d7f644323",
          "transactionIndex": "0x6",
          "logIndex": "0x3d",
          "removed": false
        }
      ],
      "logsBloom": "0x00000000000000000000000000000000000000000000000000002000000000000000000000020000020000000000000000000000000000000000000000000000000000000000000000000000000000004000000000000000000000100000000000000000000000000000000000000000000000000000000000000000000020000000000000000000000000000000000000000000000000000000000000000008000000800000000000000400000000000000000000000800000000000000000000400000000000000000000000000000000080000000200000000000000000000000000001000000000000000000000000000000000000020000000000000000",
      "type": "0x2",
      "transactionHash": "0x821461ca2a4ef984c3c01197d7be2e7f5402578a5855a01b4ea3d71d7f644323",
      "transactionIndex": "0x6",
      "blockHash": "0x5ec77e0788915e77324d3bff5bd0e3f5c98fdac128191641b82ba2133752d8e6",
      "blockNumber": "0xc2c97f",
      "gasUsed": "0xbdeb",
      "effectiveGasPrice": "0x173a",
      "from": "0xa4bace916eab0435b024514c565a3a41f937550b",
      "to": "0xcc9b3887be1e52ff0e55d783e151de5a40602be1",
      "contractAddress": null
    }
  ],
  "libraries": [],
  "pending": [],
  "returns": {},
  "timestamp": 1762545849912,
  "chain": 80094,
  "commit": null
}