{
  "transactions": [
    {
      "hash": "0x3729e80a22178da49f338f75fee9f7aa6e8dcc7ebedef3d8759ea93fe39ab0c8",
      "transactionType": "CALL",
      "contractName": null,
      "contractAddress": "0xcc9b3887be1e52ff0e55d783e151de5a40602be1",
      "function": "deposit((bytes32,bytes32,bytes32,uint128),uint256)",
      "arguments": [
        "(0x33fcdc4bf6a1632c17c9f5e67dd721a9f2eabe8304f55758e682c77f68a457e3, 0x06bc873ee2707d92a1e23b12e5de4a5c63f35b28bab72ea15d1052985371773a, 0xd6aca1be9729c13d677335161321649cccae6a591554772516700f986f942eaa, 11000000)",
        "100000000000000000"
      ],
      "transaction": {
        "from": "0xa4bace916eab0435b024514c565a3a41f937550b",
        "to": "0xcc9b3887be1e52ff0e55d783e151de5a40602be1",
        "gas": "0x8f483",
        "value": "0x0",
        "input": "0x588423fb33fcdc4bf6a1632c17c9f5e67dd721a9f2eabe8304f55758e682c77f68a457e306bc873ee2707d92a1e23b12e5de4a5c63f35b28bab72ea15d1052985371773ad6aca1be9729c13d677335161321649cccae6a591554772516700f986f942eaa0000000000000000000000000000000000000000000000000000000000a7d8c0000000000000000000000000000000000000000000000000016345785d8a0000",
        "nonce": "0x5a6",
        "chainId": "0x138de"
      },
      "additionalContracts": [],
      "isFixedGasLimit": false
    }
  ],
  "receipts": [
    {
      "status": "0x1",
      "cumulativeGasUsed": "0x26caf9",
      "logs": [
        {
          "address": "0x549943e04f40284185054145c6e4e9568c1d3241",
          "topics": [
            "0x8c5be1e5ebec7d5bd14f71427d1e84f3dd0314c0f7b2291e5b200ac8c7c3b925",
            "0x000000000000000000000000cc9b3887be1e52ff0e55d783e151de5a40602be1",
            "0x000000000000000000000000816f722424b49cf1275cc86da9840fbd5a6167e9"
          ],
          "data": "0x0000000000000000000000000000000000000000000000000000000000a7d8c0",
          "blockHash": "0xd9cc106047b219e321c867eb3873fb4014541e7fc529742ff40a90e3c50aa268",
          "blockNumber": "0xc2aeef",
          "blockTimestamp": "0x690e1b9b",
          "transactionHash": "0x3729e80a22178da49f338f75fee9f7aa6e8dcc7ebedef3d8759ea93fe39ab0c8",
          "transactionIndex": "0x4",
          "logIndex": "0x30",
          "removed": false
        },
        {
          "address": "0x549943e04f40284185054145c6e4e9568c1d3241",
          "topics": [
            "0xddf252ad1be2c89b69c2b068fc378daa952ba7f163c4a11628f55a4df523b3ef",
            "0x000000000000000000000000cc9b3887be1e52ff0e55d783e151de5a40602be1",
            "0x000000000000000000000000816f722424b49cf1275cc86da9840fbd5a6167e9"
          ],
          "data": "0x0000000000000000000000000000000000000000000000000000000000a7d8c0",
          "blockHash": "0xd9cc106047b219e321c867eb3873fb4014541e7fc529742ff40a90e3c50aa268",
          "blockNumber": "0xc2aeef",
          "blockTimestamp": "0x690e1b9b",
          "transactionHash": "0x3729e80a22178da49f338f75fee9f7aa6e8dcc7ebedef3d8759ea93fe39ab0c8",
          "transactionIndex": "0x4",
          "logIndex": "0x31",
          "removed": false
        },
        {
          "address": "0xc39161c743d0307eb9bcc9fef03eeb9dc4802de7",
          "topics": [
            "0x61ed099e74a97a1d7f8bb0952a88ca8b7b8ebd00c126ea04671f92a81213318a"
          ],
          "data": "0x0000000000000000000000004208d6e27538189bb48e603d6123a94b8abe0a0b0000000000000000000000000000000000000000000000000019d2c333847c81",
          "blockHash": "0xd9cc106047b219e321c867eb3873fb4014541e7fc529742ff40a90e3c50aa268",
          "blockNumber": "0xc2aeef",
          "blockTimestamp": "0x690e1b9b",
          "transactionHash": "0x3729e80a22178da49f338f75fee9f7aa6e8dcc7ebedef3d8759ea93fe39ab0c8",
          "transactionIndex": "0x4",
          "logIndex": "0x32",
          "removed": false
        },
        {
          "address": "0xc39161c743d0307eb9bcc9fef03eeb9dc4802de7",
          "topics": [
            "0x07ea52d82345d6e838192107d8fd7123d9c2ec8e916cd0aad13fd2b60db24644"
          ],
          "data": "0x000000000000000000000000000000000000000000000000000000000000006000000000000000000000000000000000000000000000000000000000000000a000000000000000000000000000000000000000000000000000000000000000c00000000000000000000000000000000000000000000000000000000000000001000000000000000000000000282b3386571f7f794450d5789911a9804fa346b4000000000000000000000000000000000000000000000000000000000000000000000000000000000000000000000000000000000000000000000000000000010000000000000000000000000000000000000000000000000000cc934f484ff5",
          "blockHash": "0xd9cc106047b219e321c867eb3873fb4014541e7fc529742ff40a90e3c50aa268",
          "blockNumber": "0xc2aeef",
          "blockTimestamp": "0x690e1b9b",
          "transactionHash": "0x3729e80a22178da49f338f75fee9f7aa6e8dcc7ebedef3d8759ea93fe39ab0c8",
          "transactionIndex": "0x4",
          "logIndex": "0x33",
          "removed": false
        },
        {
          "address": "0x6f475642a6e85809b1c36fa62763669b1b48dd5b",
          "topics": [
            "0x1ab700d4ced0c005b164c0f789fd09fcbb0156d4c2041b8a3bfbcd961cd1567f"
          ],
          "data": "0x000000000000000000000000000000000000000000000000000000000000006000000000000000000000000000000000000000000000000000000000000002e0000000000000000000000000c39161c743d0307eb9bcc9fef03eeb9dc4802de700000000000000000000000000000000000000000000000000000000000002510100000000000005540000769a000000000000000000000000461c12fba639303da045255dd32eea7e38ac69b000007605000000000000000000000000461c12fba639303da045255dd32eea7e38ac69b0e136742791c3724b0eaa8b2aff08cbc4d3de4576063157fab02504a2a3a1ebb7000000000000000000000000000000000000000000000000000000000000000000000000000000000000000000000000000000000000000000000000000000010000000000000000000000000000000000000000000000000000000000000003000000000000000000000000a0a07a78c7d31e6f8698f48fc9219f9a3030f38c000000000000000000000000a0a07a78c7d31e6f8698f48fc9219f9a3030f38c00000000000000000000000000000000000000000000000000000000000138de0000000000000000000000000000000000000000000000000000000000000123000000000000000000000000000000000000000000000000000000000000010000000000000000000000000000000000000000000000000000000000000000c033fcdc4bf6a1632c17c9f5e67dd721a9f2eabe8304f55758e682c77f68a457e3000000000000000000000000cc9b3887be1e52ff0e55d783e151de5a40602be106bc873ee2707d92a1e23b12e5de4a5c63f35b28bab72ea15d1052985371773ad6aca1be9729c13d677335161321649cccae6a591554772516700f986f942eaa0000000000000000000000000000000000000000000000000000000000a7d8c000000000000000000000000000000000000000000000000000000000000004a0000000000000000000000000000000000000000000000000000000000000000000000000000000000000000000001a000301001101000000000000000000000000000493e001000104000000000000",
          "blockHash": "0xd9cc106047b219e321c867eb3873fb4014541e7fc529742ff40a90e3c50aa268",
          "blockNumber": "0xc2aeef",
          "blockTimestamp": "0x690e1b9b",
          "transactionHash": "0x3729e80a22178da49f338f75fee9f7aa6e8dcc7ebedef3d8759ea93fe39ab0c8",
          "transactionIndex": "0x4",
          "logIndex": "0x34",
          "removed": false
        },
        {
          "address": "0x461c12fba639303da045255dd32eea7e38ac69b0",
          "topics": [
            "0x79e85cff32545bb6a42b53e5178562a9e9d13e273cb20196f2e8223c6ac96f78"
          ],
          "data": "0xe136742791c3724b0eaa8b2aff08cbc4d3de4576063157fab02504a2a3a1ebb70000000000000000000000000000000000000000000000000000000000000554000000000000000000000000000000000000000000000000001a9f5682cccc760000000000000000000000000000000000000000000000000000000000000000",
          "blockHash": "0xd9cc106047b219e321c867eb3873fb4014541e7fc529742ff40a90e3c50aa268",
          "blockNumber": "0xc2aeef",
          "blockTimestamp": "0x690e1b9b",
          "transactionHash": "0x3729e80a22178da49f338f75fee9f7aa6e8dcc7ebedef3d8759ea93fe39ab0c8",
          "transactionIndex": "0x4",
          "logIndex": "0x35",
          "removed": false
        },
        {
          "address": "0x816f722424b49cf1275cc86da9840fbd5a6167e9",
          "topics": [
            "0x11f843b2ed43e9b4b568b4dff0c777a6c5ca538b4115a6149f28bce4bea90148",
            "0x33fcdc4bf6a1632c17c9f5e67dd721a9f2eabe8304f55758e682c77f68a457e3",
            "0x000000000000000000000000cc9b3887be1e52ff0e55d783e151de5a40602be1",
            "0x00000000000000000000000000000000000000000000000000000000000004a0"
          ],
          "data": "0xd6aca1be9729c13d677335161321649cccae6a591554772516700f986f942eaa0000000000000000000000000000000000000000000000000000000000a7d8c0",
          "blockHash": "0xd9cc106047b219e321c867eb3873fb4014541e7fc529742ff40a90e3c50aa268",
          "blockNumber": "0xc2aeef",
          "blockTimestamp": "0x690e1b9b",
          "transactionHash": "0x3729e80a22178da49f338f75fee9f7aa6e8dcc7ebedef3d8759ea93fe39ab0c8",
          "transactionIndex": "0x4",
          "logIndex": "0x36",
          "removed": false
        }
      ],
      "logsBloom": "0x00104080000000000000000800000400000000000000000000000000000000000000000000000000000800010000000000000000000000000000000000200000000000000000000000000008000000004140080000000000000000100000000000000001000000008020100000000000000000000000000000000010020000000000000000800000004000080000000000010000000000000000000000000000030000008000000000100400000000000000000000400000040440000000002000000002000000000000000000000000000080000008020000000000000000004010040001400000020000000000002000000000000200020000800000000000",
      "type": "0x2",
      "transactionHash": "0x3729e80a22178da49f338f75fee9f7aa6e8dcc7ebedef3d8759ea93fe39ab0c8",
      "transactionIndex": "0x4",
      "blockHash": "0xd9cc106047b219e321c867eb3873fb4014541e7fc529742ff40a90e3c50aa268",
      "blockNumber": "0xc2aeef",
      "gasUsed": "0x67bbe",
      "effectiveGasPrice": "0xc4f1",
      "from": "0xa4bace916eab0435b024514c565a3a41f937550b",
      "to": "0xcc9b3887be1e52ff0e55d783e151de5a40602be1",
      "contractAddress": null
    }
  ],
  "libraries": [],
  "pending": [],
  "returns": {},
  "timestamp": 1762532254287,
  "chain": 80094,
  "commit": null
}