{
  "transactions": [
    {
      "hash": "0xea84999d7b2d17c8c584e40bbc256025a8eb0dc8d412b75cf34b1f6ea13c12b3",
      "transactionType": "CALL",
      "contractName": null,
      "contractAddress": "0xcc9b3887be1e52ff0e55d783e151de5a40602be1",
      "function": "deposit((bytes32,bytes32,bytes32,uint128),uint256)",
      "arguments": [
        "(0x33fcdc4bf6a1632c17c9f5e67dd721a9f2eabe8304f55758e682c77f68a457e3, 0x06bc873ee2707d92a1e23b12e5de4a5c63f35b28bab72ea15d1052985371773a, 0xd6aca1be9729c13d677335161321649cccae6a591554772516700f986f942eaa, 3000000)",
        "100000000000000000"
      ],
      "transaction": {
        "from": "0xa4bace916eab0435b024514c565a3a41f937550b",
        "to": "0xcc9b3887be1e52ff0e55d783e151de5a40602be1",
        "gas": "0x8f483",
        "value": "0x0",
        "input": "0x588423fb33fcdc4bf6a1632c17c9f5e67dd721a9f2eabe8304f55758e682c77f68a457e306bc873ee2707d92a1e23b12e5de4a5c63f35b28bab72ea15d1052985371773ad6aca1be9729c13d677335161321649cccae6a591554772516700f986f942eaa00000000000000000000000000000000000000000000000000000000002dc6c0000000000000000000000000000000000000000000000000016345785d8a0000",
        "nonce": "0x5a5",
        "chainId": "0x138de"
      },
      "additionalContracts": [],
      "isFixedGasLimit": false
    }
  ],
  "receipts": [
    {
      "status": "0x1",
      "cumulativeGasUsed": "0x763173",
      "logs": [
        {
          "address": "0x549943e04f40284185054145c6e4e9568c1d3241",
          "topics": [
            "0x8c5be1e5ebec7d5bd14f71427d1e84f3dd0314c0f7b2291e5b200ac8c7c3b925",
            "0x000000000000000000000000cc9b3887be1e52ff0e55d783e151de5a40602be1",
            "0x000000000000000000000000816f722424b49cf1275cc86da9840fbd5a6167e9"
          ],
          "data": "0x00000000000000000000000000000000000000000000000000000000002dc6c0",
          "blockHash": "0x1777bfbc4efac360fbfaeeb500832258e6550eaa7c2f8f8e9d07b1ced4be46de",
          "blockNumber": "0xc29cde",
          "blockTimestamp": "0x690df779",
          "transactionHash": "0xea84999d7b2d17c8c584e40bbc256025a8eb0dc8d412b75cf34b1f6ea13c12b3",
          "transactionIndex": "0x8",
          "logIndex": "0x28",
          "removed": false
        },
        {
          "address": "0x549943e04f40284185054145c6e4e9568c1d3241",
          "topics": [
            "0xddf252ad1be2c89b69c2b068fc378daa952ba7f163c4a11628f55a4df523b3ef",
            "0x000000000000000000000000cc9b3887be1e52ff0e55d783e151de5a40602be1",
            "0x000000000000000000000000816f722424b49cf1275cc86da9840fbd5a6167e9"
          ],
          "data": "0x00000000000000000000000000000000000000000000000000000000002dc6c0",
          "blockHash": "0x1777bfbc4efac360fbfaeeb500832258e6550eaa7c2f8f8e9d07b1ced4be46de",
          "blockNumber": "0xc29cde",
          "blockTimestamp": "0x690df779",
          "transactionHash": "0xea84999d7b2d17c8c584e40bbc256025a8eb0dc8d412b75cf34b1f6ea13c12b3",
          "transactionIndex": "0x8",
          "logIndex": "0x29",
          "removed": false
        },
        {
          "address": "0xc39161c743d0307eb9bcc9fef03eeb9dc4802de7",
          "topics": [
            "0x61ed099e74a97a1d7f8bb0952a88ca8b7b8ebd00c126ea04671f92a81213318a"
          ],
          "data": "0x0000000000000000000000004208d6e27538189bb48e603d6123a94b8abe0a0b000000000000000000000000000000000000000000000000001cce7678957a91",
          "blockHash": "0x1777bfbc4efac360fbfaeeb500832258e6550eaa7c2f8f8e9d07b1ced4be46de",
          "blockNumber": "0xc29cde",
          "blockTimestamp": "0x690df779",
          "transactionHash": "0xea84999d7b2d17c8c584e40bbc256025a8eb0dc8d412b75cf34b1f6ea13c12b3",
          "transactionIndex": "0x8",
          "logIndex": "0x2a",
          "removed": false
        },
        {
          "address": "0xc39161c743d0307eb9bcc9fef03eeb9dc4802de7",
          "topics": [
            "0x07ea52d82345d6e838192107d8fd7123d9c2ec8e916cd0aad13fd2b60db24644"
          ],
          "data": "0x000000000000000000000000000000000000000000000000000000000000006000000000000000000000000000000000000000000000000000000000000000a000000000000000000000000000000000000000000000000000000000000000c00000000000000000000000000000000000000000000000000000000000000001000000000000000000000000282b3386571f7f794450d5789911a9804fa346b4000000000000000000000000000000000000000000000000000000000000000000000000000000000000000000000000000000000000000000000000000000010000000000000000000000000000000000000000000000000000e320f4827cb2",
          "blockHash": "0x1777bfbc4efac360fbfaeeb500832258e6550eaa7c2f8f8e9d07b1ced4be46de",
          "blockNumber": "0xc29cde",
          "blockTimestamp": "0x690df779",
          "transactionHash": "0xea84999d7b2d17c8c584e40bbc256025a8eb0dc8d412b75cf34b1f6ea13c12b3",
          "transactionIndex": "0x8",
          "logIndex": "0x2b",
          "removed": false
        },
        {
          "address": "0x6f475642a6e85809b1c36fa62763669b1b48dd5b",
          "topics": [
            "0x1ab700d4ced0c005b164c0f789fd09fcbb0156d4c2041b8a3bfbcd961cd1567f"
          ],
          "data": "0x000000000000000000000000000000000000000000000000000000000000006000000000000000000000000000000000000000000000000000000000000002e0000000000000000000000000c39161c743d0307eb9bcc9fef03eeb9dc4802de7000000000000000000000000000000000000000000000000000000000000025101000000000000054f0000769a000000000000000000000000461c12fba639303da045255dd32eea7e38ac69b000007605000000000000000000000000461c12fba639303da045255dd32eea7e38ac69b013bce8f7553e04964036c05d09499d7f6c51facd19fb197869bf60205d28a876000000000000000000000000000000000000000000000000000000000000000000000000000000000000000000000000000000000000000000000000000000010000000000000000000000000000000000000000000000000000000000000003000000000000000000000000a0a07a78c7d31e6f8698f48fc9219f9a3030f38c000000000000000000000000a0a07a78c7d31e6f8698f48fc9219f9a3030f38c00000000000000000000000000000000000000000000000000000000000138de0000000000000000000000000000000000000000000000000000000000000123000000000000000000000000000000000000000000000000000000000000010000000000000000000000000000000000000000000000000000000000000000c033fcdc4bf6a1632c17c9f5e67dd721a9f2eabe8304f55758e682c77f68a457e3000000000000000000000000cc9b3887be1e52ff0e55d783e151de5a40602be106bc873ee2707d92a1e23b12e5de4a5c63f35b28bab72ea15d1052985371773ad6aca1be9729c13d677335161321649cccae6a591554772516700f986f942eaa00000000000000000000000000000000000000000000000000000000002dc6c0000000000000000000000000000000000000000000000000000000000000049c000000000000000000000000000000000000000000000000000000000000000000000000000000000000000000001a000301001101000000000000000000000000000493e001000104000000000000",
          "blockHash": "0x1777bfbc4efac360fbfaeeb500832258e6550eaa7c2f8f8e9d07b1ced4be46de",
          "blockNumber": "0xc29cde",
          "blockTimestamp": "0x690df779",
          "transactionHash": "0xea84999d7b2d17c8c584e40bbc256025a8eb0dc8d412b75cf34b1f6ea13c12b3",
          "transactionIndex": "0x8",
          "logIndex": "0x2c",
          "removed": false
        },
        {
          "address": "0x461c12fba639303da045255dd32eea7e38ac69b0",
          "topics": [
            "0x79e85cff32545bb6a42b53e5178562a9e9d13e273cb20196f2e8223c6ac96f78"
          ],
          "data": "0x13bce8f7553e04964036c05d09499d7f6c51facd19fb197869bf60205d28a876000000000000000000000000000000000000000000000000000000000000054f000000000000000000000000000000000000000000000000001db1976d17f7430000000000000000000000000000000000000000000000000000000000000000",
          "blockHash": "0x1777bfbc4efac360fbfaeeb500832258e6550eaa7c2f8f8e9d07b1ced4be46de",
          "blockNumber": "0xc29cde",
          "blockTimestamp": "0x690df779",
          "transactionHash": "0xea84999d7b2d17c8c584e40bbc256025a8eb0dc8d412b75cf34b1f6ea13c12b3",
          "transactionIndex": "0x8",
          "logIndex": "0x2d",
          "removed": false
        },
        {
          "address": "0x816f722424b49cf1275cc86da9840fbd5a6167e9",
          "topics": [
            "0x11f843b2ed43e9b4b568b4dff0c777a6c5ca538b4115a6149f28bce4bea90148",
            "0x33fcdc4bf6a1632c17c9f5e67dd721a9f2eabe8304f55758e682c77f68a457e3",
            "0x000000000000000000000000cc9b3887be1e52ff0e55d783e151de5a40602be1",
            "0x000000000000000000000000000000000000000000000000000000000000049c"
          ],
          "data": "0xd6aca1be9729c13d677335161321649cccae6a591554772516700f986f942eaa00000000000000000000000000000000000000000000000000000000002dc6c0",
          "blockHash": "0x1777bfbc4efac360fbfaeeb500832258e6550eaa7c2f8f8e9d07b1ced4be46de",
          "blockNumber": "0xc29cde",
          "blockTimestamp": "0x690df779",
          "transactionHash": "0xea84999d7b2d17c8c584e40bbc256025a8eb0dc8d412b75cf34b1f6ea13c12b3",
          "transactionIndex": "0x8",
          "logIndex": "0x2e",
          "removed": false
        }
      ],
      "logsBloom": "0x00104080000000000000000800000400000000000000000000000000800000000000000000000000000800010000000000000000000000000000000000200000000000000000000000000008000000004140080000000000000000100800000000000000000000008020100000000000000000000000000000000010020000000000000000800000004000080000000000000000000000000000000000000000030000008000000000100400000000000000000000404000040440000000002000000002000000000000000000000000000080000008020000000000000000004010040001400000020000000000002000000000000200020000000000000000",
      "type": "0x2",
      "transactionHash": "0xea84999d7b2d17c8c584e40bbc256025a8eb0dc8d412b75cf34b1f6ea13c12b3",
      "transactionIndex": "0x8",
      "blockHash": "0x1777bfbc4efac360fbfaeeb500832258e6550eaa7c2f8f8e9d07b1ced4be46de",
      "blockNumber": "0xc29cde",
      "gasUsed": "0x67bbe",
      "effectiveGasPrice": "0x1775",
      "from": "0xa4bace916eab0435b024514c565a3a41f937550b",
      "to": "0xcc9b3887be1e52ff0e55d783e151de5a40602be1",
      "contractAddress": null
    }
  ],
  "libraries": [],
  "pending": [],
  "returns": {},
  "timestamp": 1762523002761,
  "chain": 80094,
  "commit": null
}