{
  "transactions": [
    {
      "hash": "0xc630029b39563411715b4fa36506c4f3afa48765a1158efe57384f97569d4ceb",
      "transactionType": "CALL",
      "contractName": null,
      "contractAddress": "0xcc9b3887be1e52ff0e55d783e151de5a40602be1",
      "function": "transfersToDelegator(address,uint256)",
      "arguments": [
        "0x194534c6690e83A12CEE569B5E2E0115c1F8e4a5",
        "400000"
      ],
      "transaction": {
        "from": "0xa4bace916eab0435b024514c565a3a41f937550b",
        "to": "0xcc9b3887be1e52ff0e55d783e151de5a40602be1",
        "gas": "0x1750c",
        "value": "0x0",
        "input": "0x4c146673000000000000000000000000194534c6690e83a12cee569b5e2e0115c1f8e4a50000000000000000000000000000000000000000000000000000000000061a80",
        "nonce": "0x59d",
        "chainId": "0x138de"
      },
      "additionalContracts": [],
      "isFixedGasLimit": false
    }
  ],
  "receipts": [
    {
      "status": "0x1",
      "cumulativeGasUsed": "0x614b71",
      "logs": [
        {
          "address": "0x549943e04f40284185054145c6e4e9568c1d3241",
          "topics": [
            "0x8c5be1e5ebec7d5bd14f71427d1e84f3dd0314c0f7b2291e5b200ac8c7c3b925",
            "0x000000000000000000000000cc9b3887be1e52ff0e55d783e151de5a40602be1",
            "0x000000000000000000000000194534c6690e83a12cee569b5e2e0115c1f8e4a5"
          ],
          "data": "0x0000000000000000000000000000000000000000000000000000000000061a80",
          "blockHash": "0x96c0b9e67819c1b56717cd2b519a0abc86408a30f4599f2bbf41e1fa95a8787d",
          "blockNumber": "0xc1f67a",
          "blockTimestamp": "0x690caab1",
          "transactionHash": "0xc630029b39563411715b4fa36506c4f3afa48765a1158efe57384f97569d4ceb",
          "transactionIndex": "0x8",
          "logIndex": "0x40",
          "removed": false
        },
        {
          "address": "0x549943e04f40284185054145c6e4e9568c1d3241",
          "topics": [
            "0xddf252ad1be2c89b69c2b068fc378daa952ba7f163c4a11628f55a4df523b3ef",
            "0x000000000000000000000000cc9b3887be1e52ff0e55d783e151de5a40602be1",
            "0x000000000000000000000000194534c6690e83a12cee569b5e2e0115c1f8e4a5"
          ],
          "data": "0x0000000000000000000000000000000000000000000000000000000000061a80",
          "blockHash": "0x96c0b9e67819c1b56717cd2b519a0abc86408a30f4599f2bbf41e1fa95a8787d",
          "blockNumber": "0xc1f67a",
          "blockTimestamp": "0x690caab1",
          "transactionHash": "0xc630029b39563411715b4fa36506c4f3afa48765a1158efe57384f97569d4ceb",
          "transactionIndex": "0x8",
          "logIndex": "0x41",
          "removed": false
        }
      ],
      "logsBloom": "0x00000000000000000000000000000000000000000000010000400000000000000000000000000000000800000000000000000000000000000000000000200000000000000000000000000008000000000000000000000000000000100000000000000000000000000000000000000000000000000000000000000010000000000000000000000000000000000000000000000000000000000000000000000000020000000000000000000000000000000000000000000000040000000000002000000002000000000000000000000000000000000000000000000000000000000010000001000000000000000000000000000400000000020000000000000000",
      "type": "0x2",
      "transactionHash": "0xc630029b39563411715b4fa36506c4f3afa48765a1158efe57384f97569d4ceb",
      "transactionIndex": "0x8",
      "blockHash": "0x96c0b9e67819c1b56717cd2b519a0abc86408a30f4599f2bbf41e1fa95a8787d",
      "blockNumber": "0xc1f67a",
      "gasUsed": "0x10e15",
      "effectiveGasPrice": "0x17d2",
      "from": "0xa4bace916eab0435b024514c565a3a41f937550b",
      "to": "0xcc9b3887be1e52ff0e55d783e151de5a40602be1",
      "contractAddress": null
    }
  ],
  "libraries": [],
  "pending": [],
  "returns": {},
  "timestamp": 1762437812193,
  "chain": 80094,
  "commit": null
}