{
  "transactions": [
    {
      "hash": "0x475147560cf44a50214490094c843c978ca255eae548c1dd3388c6338f498478",
      "transactionType": "CALL",
      "contractName": null,
      "contractAddress": "0xcc9b3887be1e52ff0e55d783e151de5a40602be1",
      "function": "delegate((bytes32,address))",
      "arguments": [
        "(0x06bc873ee2707d92a1e23b12e5de4a5c63f35b28bab72ea15d1052985371773a, 0x194534c6690e83A12CEE569B5E2E0115c1F8e4a5)"
      ],
      "transaction": {
        "from": "0xa4bace916eab0435b024514c565a3a41f937550b",
        "to": "0xcc9b3887be1e52ff0e55d783e151de5a40602be1",
        "gas": "0x105e6",
        "value": "0x0",
        "input": "0xec90e42f06bc873ee2707d92a1e23b12e5de4a5c63f35b28bab72ea15d1052985371773a000000000000000000000000194534c6690e83a12cee569b5e2e0115c1f8e4a5",
        "nonce": "0x598",
        "chainId": "0x138de"
      },
      "additionalContracts": [],
      "isFixedGasLimit": false
    }
  ],
  "receipts": [
    {
      "status": "0x1",
      "cumulativeGasUsed": "0x17247b",
      "logs": [
        {
          "address": "0x816f722424b49cf1275cc86da9840fbd5a6167e9",
          "topics": [
            "0x1e236eed9d7e9ca81e25a438791ca7f69cf43cdcc537a0fd4f74f0697da0460b",
            "0x000000000000000000000000cc9b3887be1e52ff0e55d783e151de5a40602be1",
            "0x06bc873ee2707d92a1e23b12e5de4a5c63f35b28bab72ea15d1052985371773a",
            "0x000000000000000000000000194534c6690e83a12cee569b5e2e0115c1f8e4a5"
          ],
          "data": "0x00000000000000000000000000000000000000000000000000000000000138de0000000000000000000000000000000000000000000000000000000000b594ff",
          "blockHash": "0x249d6a435d72fe518dc3a06d68d5d549ea82d0868a811be0de74577dfb091123",
          "blockNumber": "0xb594ff",
          "blockTimestamp": "0x68f2495b",
          "transactionHash": "0x475147560cf44a50214490094c843c978ca255eae548c1dd3388c6338f498478",
          "transactionIndex": "0x6",
          "logIndex": "0x51",
          "removed": false
        }
      ],
      "logsBloom": "0x00000000000000000000000000000000000000000000010000400000000000000000000000000000020000000000000000000000000000000000000000000000000000000000000000000000000000004000000000000000000000100000000000000000000000000000000000000000000000000000000000000000000020000000000000000000000000000000000000000000000000000000000000000008000000800000000000000400000000000000000000000000000000000000000000400000000000000000000000000000000080000000200000000000000000000000000001000000000000000000000000000400000000020000000000000000",
      "type": "0x2",
      "transactionHash": "0x475147560cf44a50214490094c843c978ca255eae548c1dd3388c6338f498478",
      "transactionIndex": "0x6",
      "blockHash": "0x249d6a435d72fe518dc3a06d68d5d549ea82d0868a811be0de74577dfb091123",
      "blockNumber": "0xb594ff",
      "gasUsed": "0xbd9d",
      "effectiveGasPrice": "0x176d",
      "from": "0xa4bace916eab0435b024514c565a3a41f937550b",
      "to": "0xcc9b3887be1e52ff0e55d783e151de5a40602be1",
      "contractAddress": null
    }
  ],
  "libraries": [],
  "pending": [],
  "returns": {},
  "timestamp": 1760708954698,
  "chain": 80094,
  "commit": null
}