{
  "transactions": [
    {
      "hash": "0x2d4db16934999e978cd87d69c9d9a0df6d7a75a58e59ad6112831f93ac63501e",
      "transactionType": "CALL",
      "contractName": null,
      "contractAddress": "0xfdfc9f12336974a60ae0c0918ceb8aec73bda716",
      "function": "initializeCycle()",
      "arguments": [],
      "transaction": {
        "from": "0xa4bace916eab0435b024514c565a3a41f937550b",
        "to": "0xfdfc9f12336974a60ae0c0918ceb8aec73bda716",
        "gas": "0xd2ee",
        "value": "0x0",
        "input": "0x9e28a10e",
        "nonce": "0x5ac",
        "chainId": "0x138de"
      },
      "additionalContracts": [],
      "isFixedGasLimit": false
    },
    {
      "hash": "0x6c13798e46602947002d7042e9ca166aed08d54cb2ab3fca682c1d02d4f90d66",
      "transactionType": "CALL",
      "contractName": null,
      "contractAddress": "0x549943e04f40284185054145c6e4e9568c1d3241",
      "function": "approve(address,uint256)",
      "arguments": [
        "0xFdFC9F12336974A60ae0c0918ceB8AEC73BdA716",
        "23000000"
      ],
      "transaction": {
        "from": "0xc9104f69637c03d2646bf8225fcbb796c148d543",
        "to": "0x549943e04f40284185054145c6e4e9568c1d3241",
        "gas": "0x13cc6",
        "value": "0x0",
        "input": "0x095ea7b3000000000000000000000000fdfc9f12336974a60ae0c0918ceb8aec73bda71600000000000000000000000000000000000000000000000000000000015ef3c0",
        "nonce": "0x77",
        "chainId": "0x138de"
      },
      "additionalContracts": [],
      "isFixedGasLimit": false
    },
    {
      "hash": "0xa8a3921d8480e6f4bf4493a9ad05371070715196de4573c6343860957400116d",
      "transactionType": "CALL",
      "contractName": null,
      "contractAddress": "0xfdfc9f12336974a60ae0c0918ceb8aec73bda716",
      "function": "deposit(uint256,address)",
      "arguments": [
        "23000000",
        "0xC9104F69637C03D2646bF8225fcBb796C148D543"
      ],
      "transaction": {
        "from": "0xc9104f69637c03d2646bf8225fcbb796c148d543",
        "to": "0xfdfc9f12336974a60ae0c0918ceb8aec73bda716",
        "gas": "0x44406",
        "value": "0x0",
        "input": "0x6e553f6500000000000000000000000000000000000000000000000000000000015ef3c0000000000000000000000000c9104f69637c03d2646bf8225fcbb796c148d543",
        "nonce": "0x78",
        "chainId": "0x138de"
      },
      "additionalContracts": [],
      "isFixedGasLimit": false
    }
  ],
  "receipts": [
    {
      "status": "0x1",
      "cumulativeGasUsed": "0x133af9",
      "logs": [
        {
          "address": "0xfdfc9f12336974a60ae0c0918ceb8aec73bda716",
          "topics": [
            "0x898a3db72f73f883c36813d1ea413abbcfb3f82c88cc6c32cf8ac3c503492389",
            "0x0000000000000000000000000000000000000000000000000000000000000000"
          ],
          "data": "0x",
          "blockHash": "0xefe6b87188271238ad1d3e6448805717262670182779cd1192c7608ef9f7a9f7",
          "blockNumber": "0xc5f950",
          "blockTimestamp": "0x6914b05f",
          "transactionHash": "0x2d4db16934999e978cd87d69c9d9a0df6d7a75a58e59ad6112831f93ac63501e",
          "transactionIndex": "0x3",
          "logIndex": "0x3b",
          "removed": false
        }
      ],
      "logsBloom": "0x00000000000000000020000000000000020000000000000000000000000000000000000000000000000000000000000000000000000000000000000000000000000000000000000000000000000000000000000000000000000000000200000000000000020000200000000000000800000000000000000000000000000000000000000000000000000000000000000000000000000000000000000000000000000000000000000000000000000000000000000000000000000000000000000000000000000000000000000000000000000000000000000000040000000020000000000000000000000000100000000000000000000000000000000000000000",
      "type": "0x2",
      "transactionHash": "0x2d4db16934999e978cd87d69c9d9a0df6d7a75a58e59ad6112831f93ac63501e",
      "transactionIndex": "0x3",
      "blockHash": "0xefe6b87188271238ad1d3e6448805717262670182779cd1192c7608ef9f7a9f7",
      "blockNumber": "0xc5f950",
      "gasUsed": "0x903a",
      "effectiveGasPrice": "0x3f7e8",
      "from": "0xa4bace916eab0435b024514c565a3a41f937550b",
      "to": "0xfdfc9f12336974a60ae0c0918ceb8aec73bda716",
      "contractAddress": null
    },
    {
      "status": "0x1",
      "cumulativeGasUsed": "0x1fd664",
      "logs": [
        {
          "address": "0x549943e04f40284185054145c6e4e9568c1d3241",
          "topics": [
            "0x8c5be1e5ebec7d5bd14f71427d1e84f3dd0314c0f7b2291e5b200ac8c7c3b925",
            "0x000000000000000000000000c9104f69637c03d2646bf8225fcbb796c148d543",
            "0x000000000000000000000000fdfc9f12336974a60ae0c0918ceb8aec73bda716"
          ],
          "data": "0x00000000000000000000000000000000000000000000000000000000015ef3c0",
          "blockHash": "0xae4db7e6d00538fa21db446379e4eaff42675e44684779e10ec1764b4364baba",
          "blockNumber": "0xc5f953",
          "blockTimestamp": "0x6914b063",
          "transactionHash": "0x6c13798e46602947002d7042e9ca166aed08d54cb2ab3fca682c1d02d4f90d66",
          "transactionIndex": "0x8",
          "logIndex": "0x59",
          "removed": false
        }
      ],
      "logsBloom": "0x00000000000000000000000000000000000000000000000000000000000000000000000000000000000800000000000000000000000000000000000000200000000000000000000000000000000000000000000000000000000000001000000000000000000000000000000000000000000000000000000000000400000000000000000000000000000000000000000000000000000000000000000000000000020000000000020000000000100000000000000000000200040000000000002000000000000000000000000000000040000000000000000000000000000000000010000000000000000000000000000000000000000000000000000000000000",
      "type": "0x2",
      "transactionHash": "0x6c13798e46602947002d7042e9ca166aed08d54cb2ab3fca682c1d02d4f90d66",
      "transactionIndex": "0x8",
      "blockHash": "0xae4db7e6d00538fa21db446379e4eaff42675e44684779e10ec1764b4364baba",
      "blockNumber": "0xc5f953",
      "gasUsed": "0xd899",
      "effectiveGasPrice": "0x3f7e7",
      "from": "0xc9104f69637c03d2646bf8225fcbb796c148d543",
      "to": "0x549943e04f40284185054145c6e4e9568c1d3241",
      "contractAddress": null
    },
    {
      "status": "0x1",
      "cumulativeGasUsed": "0x612b68",
      "logs": [
        {
          "address": "0x549943e04f40284185054145c6e4e9568c1d3241",
          "topics": [
            "0xddf252ad1be2c89b69c2b068fc378daa952ba7f163c4a11628f55a4df523b3ef",
            "0x000000000000000000000000c9104f69637c03d2646bf8225fcbb796c148d543",
            "0x000000000000000000000000fdfc9f12336974a60ae0c0918ceb8aec73bda716"
          ],
          "data": "0x00000000000000000000000000000000000000000000000000000000015ef3c0",
          "blockHash": "0x392d22e9dd4f0139ba1b283493debfefe6dc758cf8d7e617aee60a085c08f247",
          "blockNumber": "0xc5f956",
          "blockTimestamp": "0x6914b069",
          "transactionHash": "0xa8a3921d8480e6f4bf4493a9ad05371070715196de4573c6343860957400116d",
          "transactionIndex": "0xd",
          "logIndex": "0x2d",
          "removed": false
        },
        {
          "address": "0xfdfc9f12336974a60ae0c0918ceb8aec73bda716",
          "topics": [
            "0xddf252ad1be2c89b69c2b068fc378daa952ba7f163c4a11628f55a4df523b3ef",
            "0x0000000000000000000000000000000000000000000000000000000000000000",
            "0x000000000000000000000000c9104f69637c03d2646bf8225fcbb796c148d543"
          ],
          "data": "0x00000000000000000000000000000000000000000000000000000000015ef3c0",
          "blockHash": "0x392d22e9dd4f0139ba1b283493debfefe6dc758cf8d7e617aee60a085c08f247",
          "blockNumber": "0xc5f956",
          "blockTimestamp": "0x6914b069",
          "transactionHash": "0xa8a3921d8480e6f4bf4493a9ad05371070715196de4573c6343860957400116d",
          "transactionIndex": "0xd",
          "logIndex": "0x2e",
          "removed": false
        },
        {
          "address": "0xfdfc9f12336974a60ae0c0918ceb8aec73bda716",
          "topics": [
            "0xdcbc1c05240f31ff3ad067ef1ee35ce4997762752e3a095284754544f4c709d7",
            "0x000000000000000000000000c9104f69637c03d2646bf8225fcbb796c148d543",
            "0x000000000000000000000000c9104f69637c03d2646bf8225fcbb796c148d543"
          ],
          "data": "0x00000000000000000000000000000000000000000000000000000000015ef3c000000000000000000000000000000000000000000000000000000000015ef3c0",
          "blockHash": "0x392d22e9dd4f0139ba1b283493debfefe6dc758cf8d7e617aee60a085c08f247",
          "blockNumber": "0xc5f956",
          "blockTimestamp": "0x6914b069",
          "transactionHash": "0xa8a3921d8480e6f4bf4493a9ad05371070715196de4573c6343860957400116d",
          "transactionIndex": "0xd",
          "logIndex": "0x2f",
          "removed": false
        }
      ],
      "logsBloom": "0x00000000000000000020000000000000020000000000000000000000000000000000000000000000000800000000000000000000000000000000000000000000000000400000000000000008000000000000000000000000000000001000000000000000020000000000000000000800000000000004000000000410000000000000000000000000000000000000000000000000000000000000000000000000000000000000020000000000100000000000000000000200040000000000002000000002000000000000000000000040000000000008000000040000000020000000000000000000000000000000000000000000000000000000000000000000",
      "type": "0x2",
      "transactionHash": "0xa8a3921d8480e6f4bf4493a9ad05371070715196de4573c6343860957400116d",
      "transactionIndex": "0xd",
      "blockHash": "0x392d22e9dd4f0139ba1b283493debfefe6dc758cf8d7e617aee60a085c08f247",
      "blockNumber": "0xc5f956",
      "gasUsed": "0x3169c",
      "effectiveGasPrice": "0x3f7e7",
      "from": "0xc9104f69637c03d2646bf8225fcbb796c148d543",
      "to": "0xfdfc9f12336974a60ae0c0918ceb8aec73bda716",
      "contractAddress": null
    }
  ],
  "libraries": [],
  "pending": [],
  "returns": {},
  "timestamp": 1762963562776,
  "chain": 80094,
  "commit": "96d7396"
}