{
  "transactions": [
    {
      "hash": "0xc04b43d832c273c2caf2a8e9b60bd45598a5393f523a49bd931b7e41659f40f5",
      "transactionType": "CALL",
      "contractName": null,
      "contractAddress": "0xfdfc9f12336974a60ae0c0918ceb8aec73bda716",
      "function": "deposit((bytes32,bytes32,bytes32,uint128),uint256)",
      "arguments": [
        "(0x14091fbda30fc1302faae49974d39e3aad4ad827961d43da6f82bf7c7dfebaba, 0x06bc873ee2707d92a1e23b12e5de4a5c63f35b28bab72ea15d1052985371773a, 0xd6aca1be9729c13d677335161321649cccae6a591554772516700f986f942eaa, 21000000)",
        "100000000000000000"
      ],
      "transaction": {
        "from": "0xa4bace916eab0435b024514c565a3a41f937550b",
        "to": "0xfdfc9f12336974a60ae0c0918ceb8aec73bda716",
        "gas": "0x9791a",
        "value": "0x0",
        "input": "0x588423fb14091fbda30fc1302faae49974d39e3aad4ad827961d43da6f82bf7c7dfebaba06bc873ee2707d92a1e23b12e5de4a5c63f35b28bab72ea15d1052985371773ad6aca1be9729c13d677335161321649cccae6a591554772516700f986f942eaa0000000000000000000000000000000000000000000000000000000001406f40000000000000000000000000000000000000000000000000016345785d8a0000",
        "nonce": "0x5b2",
        "chainId": "0x138de"
      },
      "additionalContracts": [],
      "isFixedGasLimit": false
    }
  ],
  "receipts": [
    {
      "status": "0x1",
      "cumulativeGasUsed": "0x55f6d1",
      "logs": [
        {
          "address": "0x549943e04f40284185054145c6e4e9568c1d3241",
          "topics": [
            "0x8c5be1e5ebec7d5bd14f71427d1e84f3dd0314c0f7b2291e5b200ac8c7c3b925",
            "0x000000000000000000000000fdfc9f12336974a60ae0c0918ceb8aec73bda716",
            "0x000000000000000000000000816f722424b49cf1275cc86da9840fbd5a6167e9"
          ],
          "data": "0x0000000000000000000000000000000000000000000000000000000001406f40",
          "blockHash": "0x029873be221c955adc8fedcb5d0e69ce389e01464209d58862cdc55332d72ab5",
          "blockNumber": "0xc6818d",
          "blockTimestamp": "0x6915c0d7",
          "transactionHash": "0xc04b43d832c273c2caf2a8e9b60bd45598a5393f523a49bd931b7e41659f40f5",
          "transactionIndex": "0xd",
          "logIndex": "0x4c",
          "removed": false
        },
        {
          "address": "0x549943e04f40284185054145c6e4e9568c1d3241",
          "topics": [
            "0xddf252ad1be2c89b69c2b068fc378daa952ba7f163c4a11628f55a4df523b3ef",
            "0x000000000000000000000000fdfc9f12336974a60ae0c0918ceb8aec73bda716",
            "0x000000000000000000000000816f722424b49cf1275cc86da9840fbd5a6167e9"
          ],
          "data": "0x0000000000000000000000000000000000000000000000000000000001406f40",
          "blockHash": "0x029873be221c955adc8fedcb5d0e69ce389e01464209d58862cdc55332d72ab5",
          "blockNumber": "0xc6818d",
          "blockTimestamp": "0x6915c0d7",
          "transactionHash": "0xc04b43d832c273c2caf2a8e9b60bd45598a5393f523a49bd931b7e41659f40f5",
          "transactionIndex": "0xd",
          "logIndex": "0x4d",
          "removed": false
        },
        {
          "address": "0xc39161c743d0307eb9bcc9fef03eeb9dc4802de7",
          "topics": [
            "0x61ed099e74a97a1d7f8bb0952a88ca8b7b8ebd00c126ea04671f92a81213318a"
          ],
          "data": "0x0000000000000000000000004208d6e27538189bb48e603d6123a94b8abe0a0b0000000000000000000000000000000000000000000000000019c31447e5f48f",
          "blockHash": "0x029873be221c955adc8fedcb5d0e69ce389e01464209d58862cdc55332d72ab5",
          "blockNumber": "0xc6818d",
          "blockTimestamp": "0x6915c0d7",
          "transactionHash": "0xc04b43d832c273c2caf2a8e9b60bd45598a5393f523a49bd931b7e41659f40f5",
          "transactionIndex": "0xd",
          "logIndex": "0x4e",
          "removed": false
        },
        {
          "address": "0xc39161c743d0307eb9bcc9fef03eeb9dc4802de7",
          "topics": [
            "0x07ea52d82345d6e838192107d8fd7123d9c2ec8e916cd0aad13fd2b60db24644"
          ],
          "data": "0x000000000000000000000000000000000000000000000000000000000000006000000000000000000000000000000000000000000000000000000000000000a000000000000000000000000000000000000000000000000000000000000000c00000000000000000000000000000000000000000000000000000000000000001000000000000000000000000282b3386571f7f794450d5789911a9804fa346b4000000000000000000000000000000000000000000000000000000000000000000000000000000000000000000000000000000000000000000000000000000010000000000000000000000000000000000000000000000000000cc934f484ff5",
          "blockHash": "0x029873be221c955adc8fedcb5d0e69ce389e01464209d58862cdc55332d72ab5",
          "blockNumber": "0xc6818d",
          "blockTimestamp": "0x6915c0d7",
          "transactionHash": "0xc04b43d832c273c2caf2a8e9b60bd45598a5393f523a49bd931b7e41659f40f5",
          "transactionIndex": "0xd",
          "logIndex": "0x4f",
          "removed": false
        },
        {
          "address": "0x6f475642a6e85809b1c36fa62763669b1b48dd5b",
          "topics": [
            "0x1ab700d4ced0c005b164c0f789fd09fcbb0156d4c2041b8a3bfbcd961cd1567f"
          ],
          "data": "0x000000000000000000000000000000000000000000000000000000000000006000000000000000000000000000000000000000000000000000000000000002e0000000000000000000000000c39161c743d0307eb9bcc9fef03eeb9dc4802de700000000000000000000000000000000000000000000000000000000000002510100000000000005950000769a000000000000000000000000461c12fba639303da045255dd32eea7e38ac69b000007605000000000000000000000000461c12fba639303da045255dd32eea7e38ac69b01f098e33bc27f2d7ea143e98b01afc9e7f17a1a7d66b61e79a0c445951891624000000000000000000000000000000000000000000000000000000000000000000000000000000000000000000000000000000000000000000000000000000010000000000000000000000000000000000000000000000000000000000000003000000000000000000000000a0a07a78c7d31e6f8698f48fc9219f9a3030f38c000000000000000000000000a0a07a78c7d31e6f8698f48fc9219f9a3030f38c00000000000000000000000000000000000000000000000000000000000138de0000000000000000000000000000000000000000000000000000000000000123000000000000000000000000000000000000000000000000000000000000010000000000000000000000000000000000000000000000000000000000000000c014091fbda30fc1302faae49974d39e3aad4ad827961d43da6f82bf7c7dfebaba000000000000000000000000fdfc9f12336974a60ae0c0918ceb8aec73bda71606bc873ee2707d92a1e23b12e5de4a5c63f35b28bab72ea15d1052985371773ad6aca1be9729c13d677335161321649cccae6a591554772516700f986f942eaa0000000000000000000000000000000000000000000000000000000001406f4000000000000000000000000000000000000000000000000000000000000004d1000000000000000000000000000000000000000000000000000000000000000000000000000000000000000000001a000301001101000000000000000000000000000493e001000104000000000000",
          "blockHash": "0x029873be221c955adc8fedcb5d0e69ce389e01464209d58862cdc55332d72ab5",
          "blockNumber": "0xc6818d",
          "blockTimestamp": "0x6915c0d7",
          "transactionHash": "0xc04b43d832c273c2caf2a8e9b60bd45598a5393f523a49bd931b7e41659f40f5",
          "transactionIndex": "0xd",
          "logIndex": "0x50",
          "removed": false
        },
        {
          "address": "0x461c12fba639303da045255dd32eea7e38ac69b0",
          "topics": [
            "0x79e85cff32545bb6a42b53e5178562a9e9d13e273cb20196f2e8223c6ac96f78"
          ],
          "data": "0x1f098e33bc27f2d7ea143e98b01afc9e7f17a1a7d66b61e79a0c4459518916240000000000000000000000000000000000000000000000000000000000000595000000000000000000000000000000000000000000000000001a8fa7972e44840000000000000000000000000000000000000000000000000000000000000000",
          "blockHash": "0x029873be221c955adc8fedcb5d0e69ce389e01464209d58862cdc55332d72ab5",
          "blockNumber": "0xc6818d",
          "blockTimestamp": "0x6915c0d7",
          "transactionHash": "0xc04b43d832c273c2caf2a8e9b60bd45598a5393f523a49bd931b7e41659f40f5",
          "transactionIndex": "0xd",
          "logIndex": "0x51",
          "removed": false
        },
        {
          "address": "0x816f722424b49cf1275cc86da9840fbd5a6167e9",
          "topics": [
            "0x11f843b2ed43e9b4b568b4dff0c777a6c5ca538b4115a6149f28bce4bea90148",
            "0x14091fbda30fc1302faae49974d39e3aad4ad827961d43da6f82bf7c7dfebaba",
            "0x000000000000000000000000fdfc9f12336974a60ae0c0918ceb8aec73bda716",
            "0x00000000000000000000000000000000000000000000000000000000000004d1"
          ],
          "data": "0xd6aca1be9729c13d677335161321649cccae6a591554772516700f986f942eaa0000000000000000000000000000000000000000000000000000000001406f40",
          "blockHash": "0x029873be221c955adc8fedcb5d0e69ce389e01464209d58862cdc55332d72ab5",
          "blockNumber": "0xc6818d",
          "blockTimestamp": "0x6915c0d7",
          "transactionHash": "0xc04b43d832c273c2caf2a8e9b60bd45598a5393f523a49bd931b7e41659f40f5",
          "transactionIndex": "0xd",
          "logIndex": "0x52",
          "removed": false
        }
      ],
      "logsBloom": "0x00104080000000000000000000000400000000000000000001000000000000000000000000000000000800010000000000000000000000000000000000200000000000000000000000000008000000004140000000000000000000000000000000000000000000008020100000000000000000000000000000002410020000000000000000800000004010080000000000000000000000000000040000000000030000008000020000100400000000000000000000c00000040440000000002000000002000000000000000000000040000080000008020000000000000000004010040000400000020000000000002000000000000000000000000000000000",
      "type": "0x2",
      "transactionHash": "0xc04b43d832c273c2caf2a8e9b60bd45598a5393f523a49bd931b7e41659f40f5",
      "transactionIndex": "0xd",
      "blockHash": "0x029873be221c955adc8fedcb5d0e69ce389e01464209d58862cdc55332d72ab5",
      "blockNumber": "0xc6818d",
      "gasUsed": "0x67a31",
      "effectiveGasPrice": "0x186dc",
      "from": "0xa4bace916eab0435b024514c565a3a41f937550b",
      "to": "0xfdfc9f12336974a60ae0c0918ceb8aec73bda716",
      "contractAddress": null
    }
  ],
  "libraries": [],
  "pending": [],
  "returns": {},
  "timestamp": 1763033304584,
  "chain": 80094,
  "commit": "96d7396"
}