{
  "transactions": [
    {
      "hash": "0xe82b457edbcb8f960431ae05699f924b09ef2356ee01516979fc904ff566065e",
      "transactionType": "CALL",
      "contractName": null,
      "contractAddress": "0xfdfc9f12336974a60ae0c0918ceb8aec73bda716",
      "function": "delegate((bytes32,address))",
      "arguments": [
        "(0x06bc873ee2707d92a1e23b12e5de4a5c63f35b28bab72ea15d1052985371773a, 0xacD8B8DF59BA4b7c8d69617400c0EA61e3704cFa)"
      ],
      "transaction": {
        "from": "0xa4bace916eab0435b024514c565a3a41f937550b",
        "to": "0xfdfc9f12336974a60ae0c0918ceb8aec73bda716",
        "gas": "0x11df3",
        "value": "0x0",
        "input": "0xec90e42f06bc873ee2707d92a1e23b12e5de4a5c63f35b28bab72ea15d1052985371773a000000000000000000000000acd8b8df59ba4b7c8d69617400c0ea61e3704cfa",
        "nonce": "0x5ae",
        "chainId": "0x138de"
      },
      "additionalContracts": [],
      "isFixedGasLimit": false
    }
  ],
  "receipts": [
    {
      "status": "0x1",
      "cumulativeGasUsed": "0x12a526e",
      "logs": [
        {
          "address": "0x816f722424b49cf1275cc86da9840fbd5a6167e9",
          "topics": [
            "0x1e236eed9d7e9ca81e25a438791ca7f69cf43cdcc537a0fd4f74f0697da0460b",
            "0x000000000000000000000000fdfc9f12336974a60ae0c0918ceb8aec73bda716",
            "0x06bc873ee2707d92a1e23b12e5de4a5c63f35b28bab72ea15d1052985371773a",
            "0x000000000000000000000000acd8b8df59ba4b7c8d69617400c0ea61e3704cfa"
          ],
          "data": "0x00000000000000000000000000000000000000000000000000000000000138de0000000000000000000000000000000000000000000000000000000000c5fa79",
          "blockHash": "0x99695a62586afbec8b78530e6f6f5317fa2533950a0355f580b37a84a8041b3c",
          "blockNumber": "0xc5fa79",
          "blockTimestamp": "0x6914b2b3",
          "transactionHash": "0xe82b457edbcb8f960431ae05699f924b09ef2356ee01516979fc904ff566065e",
          "transactionIndex": "0xa",
          "logIndex": "0x152",
          "removed": false
        }
      ],
      "logsBloom": "0x00000000000000000000000000000000000000000000000000000000000000000000000000000000020000000000000000000000000000000000000000000000000000000000000000200000000000004000000000010000000000000000000000000000000000000000000000000000000000000000000000000400000020000000000000000000000000000000000000000000000000000000000000000008000000800000020000000400000000000000000000000000000000000000000000400000000000000000004000000040000080000000200000000000000000000000000000000000000000000000000000000000000000000000000000000000",
      "type": "0x2",
      "transactionHash": "0xe82b457edbcb8f960431ae05699f924b09ef2356ee01516979fc904ff566065e",
      "transactionIndex": "0xa",
      "blockHash": "0x99695a62586afbec8b78530e6f6f5317fa2533950a0355f580b37a84a8041b3c",
      "blockNumber": "0xc5fa79",
      "gasUsed": "0xcf06",
      "effectiveGasPrice": "0x186ee",
      "from": "0xa4bace916eab0435b024514c565a3a41f937550b",
      "to": "0xfdfc9f12336974a60ae0c0918ceb8aec73bda716",
      "contractAddress": null
    }
  ],
  "libraries": [],
  "pending": [],
  "returns": {},
  "timestamp": 1762964146987,
  "chain": 80094,
  "commit": "96d7396"
}